{
  "contractName": "Instagram",
  "abi": [
    {
      "inputs": [],
      "stateMutability": "nonpayable",
      "type": "constructor"
    },
    {
      "anonymous": false,
      "inputs": [
        {
          "indexed": true,
          "internalType": "address",
          "name": "owner",
          "type": "address"
        },
        {
          "indexed": true,
          "internalType": "address",
          "name": "spender",
          "type": "address"
        },
        {
          "indexed": false,
          "internalType": "uint256",
          "name": "value",
          "type": "uint256"
        }
      ],
      "name": "Approval",
      "type": "event"
    },
    {
      "anonymous": false,
      "inputs": [
        {
          "indexed": true,
          "internalType": "address",
          "name": "from",
          "type": "address"
        },
        {
          "indexed": true,
          "internalType": "address",
          "name": "to",
          "type": "address"
        },
        {
          "indexed": false,
          "internalType": "uint256",
          "name": "value",
          "type": "uint256"
        }
      ],
      "name": "Transfer",
      "type": "event"
    },
    {
      "inputs": [],
      "name": "admin",
      "outputs": [
        {
          "internalType": "address",
          "name": "",
          "type": "address"
        }
      ],
      "stateMutability": "view",
      "type": "function",
      "constant": true
    },
    {
      "inputs": [
        {
          "internalType": "address",
          "name": "owner",
          "type": "address"
        },
        {
          "internalType": "address",
          "name": "spender",
          "type": "address"
        }
      ],
      "name": "allowance",
      "outputs": [
        {
          "internalType": "uint256",
          "name": "",
          "type": "uint256"
        }
      ],
      "stateMutability": "view",
      "type": "function",
      "constant": true
    },
    {
      "inputs": [
        {
          "internalType": "address",
          "name": "spender",
          "type": "address"
        },
        {
          "internalType": "uint256",
          "name": "amount",
          "type": "uint256"
        }
      ],
      "name": "approve",
      "outputs": [
        {
          "internalType": "bool",
          "name": "",
          "type": "bool"
        }
      ],
      "stateMutability": "nonpayable",
      "type": "function"
    },
    {
      "inputs": [
        {
          "internalType": "address",
          "name": "account",
          "type": "address"
        }
      ],
      "name": "balanceOf",
      "outputs": [
        {
          "internalType": "uint256",
          "name": "",
          "type": "uint256"
        }
      ],
      "stateMutability": "view",
      "type": "function",
      "constant": true
    },
    {
      "inputs": [],
      "name": "decimals",
      "outputs": [
        {
          "internalType": "uint8",
          "name": "",
          "type": "uint8"
        }
      ],
      "stateMutability": "view",
      "type": "function",
      "constant": true
    },
    {
      "inputs": [
        {
          "internalType": "address",
          "name": "spender",
          "type": "address"
        },
        {
          "internalType": "uint256",
          "name": "subtractedValue",
          "type": "uint256"
        }
      ],
      "name": "decreaseAllowance",
      "outputs": [
        {
          "internalType": "bool",
          "name": "",
          "type": "bool"
        }
      ],
      "stateMutability": "nonpayable",
      "type": "function"
    },
    {
      "inputs": [
        {
          "internalType": "address",
          "name": "spender",
          "type": "address"
        },
        {
          "internalType": "uint256",
          "name": "addedValue",
          "type": "uint256"
        }
      ],
      "name": "increaseAllowance",
      "outputs": [
        {
          "internalType": "bool",
          "name": "",
          "type": "bool"
        }
      ],
      "stateMutability": "nonpayable",
      "type": "function"
    },
    {
      "inputs": [],
      "name": "name",
      "outputs": [
        {
          "internalType": "string",
          "name": "",
          "type": "string"
        }
      ],
      "stateMutability": "view",
      "type": "function",
      "constant": true
    },
    {
      "inputs": [],
      "name": "nextId",
      "outputs": [
        {
          "internalType": "uint256",
          "name": "",
          "type": "uint256"
        }
      ],
      "stateMutability": "view",
      "type": "function",
      "constant": true
    },
    {
      "inputs": [
        {
          "internalType": "uint256",
          "name": "",
          "type": "uint256"
        }
      ],
      "name": "posts",
      "outputs": [
        {
          "internalType": "address",
          "name": "creator",
          "type": "address"
        },
        {
          "internalType": "uint256",
          "name": "postId",
          "type": "uint256"
        },
        {
          "internalType": "uint256",
          "name": "timestamp",
          "type": "uint256"
        },
        {
          "internalType": "uint256",
          "name": "likes",
          "type": "uint256"
        },
        {
          "internalType": "string",
          "name": "message",
          "type": "string"
        },
        {
          "internalType": "string",
          "name": "pictureHash",
          "type": "string"
        }
      ],
      "stateMutability": "view",
      "type": "function",
      "constant": true
    },
    {
      "inputs": [],
      "name": "symbol",
      "outputs": [
        {
          "internalType": "string",
          "name": "",
          "type": "string"
        }
      ],
      "stateMutability": "view",
      "type": "function",
      "constant": true
    },
    {
      "inputs": [],
      "name": "totalSupply",
      "outputs": [
        {
          "internalType": "uint256",
          "name": "",
          "type": "uint256"
        }
      ],
      "stateMutability": "view",
      "type": "function",
      "constant": true
    },
    {
      "inputs": [
        {
          "internalType": "address",
          "name": "recipient",
          "type": "address"
        },
        {
          "internalType": "uint256",
          "name": "amount",
          "type": "uint256"
        }
      ],
      "name": "transfer",
      "outputs": [
        {
          "internalType": "bool",
          "name": "",
          "type": "bool"
        }
      ],
      "stateMutability": "nonpayable",
      "type": "function"
    },
    {
      "inputs": [
        {
          "internalType": "address",
          "name": "sender",
          "type": "address"
        },
        {
          "internalType": "address",
          "name": "recipient",
          "type": "address"
        },
        {
          "internalType": "uint256",
          "name": "amount",
          "type": "uint256"
        }
      ],
      "name": "transferFrom",
      "outputs": [
        {
          "internalType": "bool",
          "name": "",
          "type": "bool"
        }
      ],
      "stateMutability": "nonpayable",
      "type": "function"
    },
    {
      "inputs": [
        {
          "internalType": "string",
          "name": "_message",
          "type": "string"
        },
        {
          "internalType": "string",
          "name": "_pictureHash",
          "type": "string"
        }
      ],
      "name": "createNewPost",
      "outputs": [],
      "stateMutability": "nonpayable",
      "type": "function"
    }
  ],
  "bytecode": "0x60806040523480156200001157600080fd5b506040518060400160405280600a81526020017f496e73746120436f696e000000000000000000000000000000000000000000008152506040518060400160405280600481526020017f494e535400000000000000000000000000000000000000000000000000000000815250816003908051906020019062000096929190620000b8565b508060049080519060200190620000af929190620000b8565b505050620001cd565b828054620000c69062000168565b90600052602060002090601f016020900481019282620000ea576000855562000136565b82601f106200010557805160ff191683800117855562000136565b8280016001018555821562000136579182015b828111156200013557825182559160200191906001019062000118565b5b50905062000145919062000149565b5090565b5b80821115620001645760008160009055506001016200014a565b5090565b600060028204905060018216806200018157607f821691505b602082108114156200019857620001976200019e565b5b50919050565b7f4e487b7100000000000000000000000000000000000000000000000000000000600052602260045260246000fd5b6119ec80620001dd6000396000f3fe608060405234801561001057600080fd5b50600436106100f55760003560e01c806361b8ce8c11610097578063a9059cbb11610066578063a9059cbb146102b5578063b4d9e5b5146102e5578063dd62ed3e14610301578063f851a44014610331576100f5565b806361b8ce8c1461021957806370a082311461023757806395d89b4114610267578063a457c2d714610285576100f5565b806318160ddd116100d357806318160ddd1461017d57806323b872dd1461019b578063313ce567146101cb57806339509351146101e9576100f5565b806306fdde03146100fa578063095ea7b3146101185780630b1e7f8314610148575b600080fd5b61010261034f565b60405161010f91906115cd565b60405180910390f35b610132600480360381019061012d9190611118565b6103e1565b60405161013f91906115b2565b60405180910390f35b610162600480360381019061015d91906111c0565b6103ff565b60405161017496959493929190611543565b60405180910390f35b61018561056b565b60405161019291906116cf565b60405180910390f35b6101b560048036038101906101b091906110c9565b610575565b6040516101c291906115b2565b60405180910390f35b6101d361066d565b6040516101e091906116ea565b60405180910390f35b61020360048036038101906101fe9190611118565b610676565b60405161021091906115b2565b60405180910390f35b610221610722565b60405161022e91906116cf565b60405180910390f35b610251600480360381019061024c9190611064565b610728565b60405161025e91906116cf565b60405180910390f35b61026f610770565b60405161027c91906115cd565b60405180910390f35b61029f600480360381019061029a9190611118565b610802565b6040516102ac91906115b2565b60405180910390f35b6102cf60048036038101906102ca9190611118565b6108ed565b6040516102dc91906115b2565b60405180910390f35b6102ff60048036038101906102fa9190611154565b61090b565b005b61031b6004803603810190610316919061108d565b610a24565b60405161032891906116cf565b60405180910390f35b610339610aab565b6040516103469190611528565b60405180910390f35b60606003805461035e9061186f565b80601f016020809104026020016040519081016040528092919081815260200182805461038a9061186f565b80156103d75780601f106103ac576101008083540402835291602001916103d7565b820191906000526020600020905b8154815290600101906020018083116103ba57829003601f168201915b5050505050905090565b60006103f56103ee610ad1565b8484610ad9565b6001905092915050565b60076020528060005260406000206000915090508060000160009054906101000a900473ffffffffffffffffffffffffffffffffffffffff169080600101549080600201549080600301549080600401805461045a9061186f565b80601f01602080910402602001604051908101604052809291908181526020018280546104869061186f565b80156104d35780601f106104a8576101008083540402835291602001916104d3565b820191906000526020600020905b8154815290600101906020018083116104b657829003601f168201915b5050505050908060050180546104e89061186f565b80601f01602080910402602001604051908101604052809291908181526020018280546105149061186f565b80156105615780601f1061053657610100808354040283529160200191610561565b820191906000526020600020905b81548152906001019060200180831161054457829003601f168201915b5050505050905086565b6000600254905090565b6000610582848484610ca4565b6000600160008673ffffffffffffffffffffffffffffffffffffffff1673ffffffffffffffffffffffffffffffffffffffff16815260200190815260200160002060006105cd610ad1565b73ffffffffffffffffffffffffffffffffffffffff1673ffffffffffffffffffffffffffffffffffffffff1681526020019081526020016000205490508281101561064d576040517f08c379a00000000000000000000000000000000000000000000000000000000081526004016106449061164f565b60405180910390fd5b61066185610659610ad1565b858403610ad9565b60019150509392505050565b60006012905090565b6000610718610683610ad1565b848460016000610691610ad1565b73ffffffffffffffffffffffffffffffffffffffff1673ffffffffffffffffffffffffffffffffffffffff16815260200190815260200160002060008873ffffffffffffffffffffffffffffffffffffffff1673ffffffffffffffffffffffffffffffffffffffff168152602001908152602001600020546107139190611782565b610ad9565b6001905092915050565b60065481565b60008060008373ffffffffffffffffffffffffffffffffffffffff1673ffffffffffffffffffffffffffffffffffffffff168152602001908152602001600020549050919050565b60606004805461077f9061186f565b80601f01602080910402602001604051908101604052809291908181526020018280546107ab9061186f565b80156107f85780601f106107cd576101008083540402835291602001916107f8565b820191906000526020600020905b8154815290600101906020018083116107db57829003601f168201915b5050505050905090565b60008060016000610811610ad1565b73ffffffffffffffffffffffffffffffffffffffff1673ffffffffffffffffffffffffffffffffffffffff16815260200190815260200160002060008573ffffffffffffffffffffffffffffffffffffffff1673ffffffffffffffffffffffffffffffffffffffff168152602001908152602001600020549050828110156108ce576040517f08c379a00000000000000000000000000000000000000000000000000000000081526004016108c5906116af565b60405180910390fd5b6108e26108d9610ad1565b85858403610ad9565b600191505092915050565b60006109016108fa610ad1565b8484610ca4565b6001905092915050565b6040518060c001604052803373ffffffffffffffffffffffffffffffffffffffff1681526020016006548152602001428152602001600081526020018381526020018281525060076000600654815260200190815260200160002060008201518160000160006101000a81548173ffffffffffffffffffffffffffffffffffffffff021916908373ffffffffffffffffffffffffffffffffffffffff16021790555060208201518160010155604082015181600201556060820151816003015560808201518160040190805190602001906109e7929190610f2f565b5060a0820151816005019080519060200190610a04929190610f2f565b5090505060066000815480929190610a1b906118a1565b91905055505050565b6000600160008473ffffffffffffffffffffffffffffffffffffffff1673ffffffffffffffffffffffffffffffffffffffff16815260200190815260200160002060008373ffffffffffffffffffffffffffffffffffffffff1673ffffffffffffffffffffffffffffffffffffffff16815260200190815260200160002054905092915050565b600560009054906101000a900473ffffffffffffffffffffffffffffffffffffffff1681565b600033905090565b600073ffffffffffffffffffffffffffffffffffffffff168373ffffffffffffffffffffffffffffffffffffffff161415610b49576040517f08c379a0000000000000000000000000000000000000000000000000000000008152600401610b409061168f565b60405180910390fd5b600073ffffffffffffffffffffffffffffffffffffffff168273ffffffffffffffffffffffffffffffffffffffff161415610bb9576040517f08c379a0000000000000000000000000000000000000000000000000000000008152600401610bb09061160f565b60405180910390fd5b80600160008573ffffffffffffffffffffffffffffffffffffffff1673ffffffffffffffffffffffffffffffffffffffff16815260200190815260200160002060008473ffffffffffffffffffffffffffffffffffffffff1673ffffffffffffffffffffffffffffffffffffffff168152602001908152602001600020819055508173ffffffffffffffffffffffffffffffffffffffff168373ffffffffffffffffffffffffffffffffffffffff167f8c5be1e5ebec7d5bd14f71427d1e84f3dd0314c0f7b2291e5b200ac8c7c3b92583604051610c9791906116cf565b60405180910390a3505050565b600073ffffffffffffffffffffffffffffffffffffffff168373ffffffffffffffffffffffffffffffffffffffff161415610d14576040517f08c379a0000000000000000000000000000000000000000000000000000000008152600401610d0b9061166f565b60405180910390fd5b600073ffffffffffffffffffffffffffffffffffffffff168273ffffffffffffffffffffffffffffffffffffffff161415610d84576040517f08c379a0000000000000000000000000000000000000000000000000000000008152600401610d7b906115ef565b60405180910390fd5b610d8f838383610f25565b60008060008573ffffffffffffffffffffffffffffffffffffffff1673ffffffffffffffffffffffffffffffffffffffff16815260200190815260200160002054905081811015610e15576040517f08c379a0000000000000000000000000000000000000000000000000000000008152600401610e0c9061162f565b60405180910390fd5b8181036000808673ffffffffffffffffffffffffffffffffffffffff1673ffffffffffffffffffffffffffffffffffffffff16815260200190815260200160002081905550816000808573ffffffffffffffffffffffffffffffffffffffff1673ffffffffffffffffffffffffffffffffffffffff1681526020019081526020016000206000828254610ea89190611782565b925050819055508273ffffffffffffffffffffffffffffffffffffffff168473ffffffffffffffffffffffffffffffffffffffff167fddf252ad1be2c89b69c2b068fc378daa952ba7f163c4a11628f55a4df523b3ef84604051610f0c91906116cf565b60405180910390a3610f1f848484610f2a565b50505050565b505050565b505050565b828054610f3b9061186f565b90600052602060002090601f016020900481019282610f5d5760008555610fa4565b82601f10610f7657805160ff1916838001178555610fa4565b82800160010185558215610fa4579182015b82811115610fa3578251825591602001919060010190610f88565b5b509050610fb19190610fb5565b5090565b5b80821115610fce576000816000905550600101610fb6565b5090565b6000610fe5610fe084611736565b611705565b905082815260208101848484011115610ffd57600080fd5b61100884828561182d565b509392505050565b60008135905061101f81611988565b92915050565b600082601f83011261103657600080fd5b8135611046848260208601610fd2565b91505092915050565b60008135905061105e8161199f565b92915050565b60006020828403121561107657600080fd5b600061108484828501611010565b91505092915050565b600080604083850312156110a057600080fd5b60006110ae85828601611010565b92505060206110bf85828601611010565b9150509250929050565b6000806000606084860312156110de57600080fd5b60006110ec86828701611010565b93505060206110fd86828701611010565b925050604061110e8682870161104f565b9150509250925092565b6000806040838503121561112b57600080fd5b600061113985828601611010565b925050602061114a8582860161104f565b9150509250929050565b6000806040838503121561116757600080fd5b600083013567ffffffffffffffff81111561118157600080fd5b61118d85828601611025565b925050602083013567ffffffffffffffff8111156111aa57600080fd5b6111b685828601611025565b9150509250929050565b6000602082840312156111d257600080fd5b60006111e08482850161104f565b91505092915050565b6111f2816117d8565b82525050565b611201816117ea565b82525050565b600061121282611766565b61121c8185611771565b935061122c81856020860161183c565b61123581611977565b840191505092915050565b600061124d602383611771565b91507f45524332303a207472616e7366657220746f20746865207a65726f206164647260008301527f65737300000000000000000000000000000000000000000000000000000000006020830152604082019050919050565b60006112b3602283611771565b91507f45524332303a20617070726f766520746f20746865207a65726f20616464726560008301527f73730000000000000000000000000000000000000000000000000000000000006020830152604082019050919050565b6000611319602683611771565b91507f45524332303a207472616e7366657220616d6f756e742065786365656473206260008301527f616c616e636500000000000000000000000000000000000000000000000000006020830152604082019050919050565b600061137f602883611771565b91507f45524332303a207472616e7366657220616d6f756e742065786365656473206160008301527f6c6c6f77616e63650000000000000000000000000000000000000000000000006020830152604082019050919050565b60006113e5602583611771565b91507f45524332303a207472616e736665722066726f6d20746865207a65726f20616460008301527f64726573730000000000000000000000000000000000000000000000000000006020830152604082019050919050565b600061144b602483611771565b91507f45524332303a20617070726f76652066726f6d20746865207a65726f2061646460008301527f72657373000000000000000000000000000000000000000000000000000000006020830152604082019050919050565b60006114b1602583611771565b91507f45524332303a2064656372656173656420616c6c6f77616e63652062656c6f7760008301527f207a65726f0000000000000000000000000000000000000000000000000000006020830152604082019050919050565b61151381611816565b82525050565b61152281611820565b82525050565b600060208201905061153d60008301846111e9565b92915050565b600060c08201905061155860008301896111e9565b611565602083018861150a565b611572604083018761150a565b61157f606083018661150a565b81810360808301526115918185611207565b905081810360a08301526115a58184611207565b9050979650505050505050565b60006020820190506115c760008301846111f8565b92915050565b600060208201905081810360008301526115e78184611207565b905092915050565b6000602082019050818103600083015261160881611240565b9050919050565b60006020820190508181036000830152611628816112a6565b9050919050565b600060208201905081810360008301526116488161130c565b9050919050565b6000602082019050818103600083015261166881611372565b9050919050565b60006020820190508181036000830152611688816113d8565b9050919050565b600060208201905081810360008301526116a88161143e565b9050919050565b600060208201905081810360008301526116c8816114a4565b9050919050565b60006020820190506116e4600083018461150a565b92915050565b60006020820190506116ff6000830184611519565b92915050565b6000604051905081810181811067ffffffffffffffff8211171561172c5761172b611948565b5b8060405250919050565b600067ffffffffffffffff82111561175157611750611948565b5b601f19601f8301169050602081019050919050565b600081519050919050565b600082825260208201905092915050565b600061178d82611816565b915061179883611816565b9250827fffffffffffffffffffffffffffffffffffffffffffffffffffffffffffffffff038211156117cd576117cc6118ea565b5b828201905092915050565b60006117e3826117f6565b9050919050565b60008115159050919050565b600073ffffffffffffffffffffffffffffffffffffffff82169050919050565b6000819050919050565b600060ff82169050919050565b82818337600083830152505050565b60005b8381101561185a57808201518184015260208101905061183f565b83811115611869576000848401525b50505050565b6000600282049050600182168061188757607f821691505b6020821081141561189b5761189a611919565b5b50919050565b60006118ac82611816565b91507fffffffffffffffffffffffffffffffffffffffffffffffffffffffffffffffff8214156118df576118de6118ea565b5b600182019050919050565b7f4e487b7100000000000000000000000000000000000000000000000000000000600052601160045260246000fd5b7f4e487b7100000000000000000000000000000000000000000000000000000000600052602260045260246000fd5b7f4e487b7100000000000000000000000000000000000000000000000000000000600052604160045260246000fd5b6000601f19601f8301169050919050565b611991816117d8565b811461199c57600080fd5b50565b6119a881611816565b81146119b357600080fd5b5056fea26469706673582212208702230cecd13de2ed80d101669deb16ba0f186466e7bc36db03985398e2791f64736f6c63430008000033",
  "immutableReferences": {},
  "source": "// SPDX-License-Identifier: MIT\npragma solidity >=0.4.22 <0.9.0;\n\nimport \"@openzeppelin/contracts/token/ERC20/ERC20.sol\";\n\ncontract Instagram is ERC20 {\n    address public admin;\n    uint256 public nextId;\n\n    struct postStruct {\n        address creator;\n        uint256 postId;\n        uint256 timestamp;\n        uint256 likes;\n        string message;\n        string pictureHash;\n    }\n\n    mapping(uint256 => postStruct) public posts;\n\n    constructor() ERC20(\"Insta Coin\", \"INST\") {}\n\n    function createNewPost(string memory _message, string memory _pictureHash)\n        external\n    {\n        posts[nextId] = postStruct(\n            msg.sender,\n            nextId,\n            block.timestamp,\n            0,\n            _message,\n            _pictureHash\n        );\n\n        nextId++;\n    }\n}\n",
  "sourcePath": "/Volumes/APPLE HDD/reactprojects/instagram/contracts/Instagram.sol",
  "compiler": {
    "name": "solc",
    "version": "0.8.0+commit.c7dfd78e.Emscripten.clang"
  },
  "schemaVersion": "3.4.3",
  "updatedAt": "2021-10-22T07:56:16.594Z",
  "networkType": "ethereum",
  "devdoc": {
    "kind": "dev",
    "methods": {
      "allowance(address,address)": {
        "details": "See {IERC20-allowance}."
      },
      "approve(address,uint256)": {
        "details": "See {IERC20-approve}. Requirements: - `spender` cannot be the zero address."
      },
      "balanceOf(address)": {
        "details": "See {IERC20-balanceOf}."
      },
      "decimals()": {
        "details": "Returns the number of decimals used to get its user representation. For example, if `decimals` equals `2`, a balance of `505` tokens should be displayed to a user as `5.05` (`505 / 10 ** 2`). Tokens usually opt for a value of 18, imitating the relationship between Ether and Wei. This is the value {ERC20} uses, unless this function is overridden; NOTE: This information is only used for _display_ purposes: it in no way affects any of the arithmetic of the contract, including {IERC20-balanceOf} and {IERC20-transfer}."
      },
      "decreaseAllowance(address,uint256)": {
        "details": "Atomically decreases the allowance granted to `spender` by the caller. This is an alternative to {approve} that can be used as a mitigation for problems described in {IERC20-approve}. Emits an {Approval} event indicating the updated allowance. Requirements: - `spender` cannot be the zero address. - `spender` must have allowance for the caller of at least `subtractedValue`."
      },
      "increaseAllowance(address,uint256)": {
        "details": "Atomically increases the allowance granted to `spender` by the caller. This is an alternative to {approve} that can be used as a mitigation for problems described in {IERC20-approve}. Emits an {Approval} event indicating the updated allowance. Requirements: - `spender` cannot be the zero address."
      },
      "name()": {
        "details": "Returns the name of the token."
      },
      "symbol()": {
        "details": "Returns the symbol of the token, usually a shorter version of the name."
      },
      "totalSupply()": {
        "details": "See {IERC20-totalSupply}."
      },
      "transfer(address,uint256)": {
        "details": "See {IERC20-transfer}. Requirements: - `recipient` cannot be the zero address. - the caller must have a balance of at least `amount`."
      },
      "transferFrom(address,address,uint256)": {
        "details": "See {IERC20-transferFrom}. Emits an {Approval} event indicating the updated allowance. This is not required by the EIP. See the note at the beginning of {ERC20}. Requirements: - `sender` and `recipient` cannot be the zero address. - `sender` must have a balance of at least `amount`. - the caller must have allowance for ``sender``'s tokens of at least `amount`."
      }
    },
    "version": 1
  },
  "userdoc": {
    "kind": "user",
    "methods": {},
    "version": 1
  }
}