{
  "contractName": "Instagram",
  "abi": [
    {
      "inputs": [],
      "stateMutability": "nonpayable",
      "type": "constructor"
    },
    {
      "anonymous": false,
      "inputs": [
        {
          "indexed": true,
          "internalType": "address",
          "name": "owner",
          "type": "address"
        },
        {
          "indexed": true,
          "internalType": "address",
          "name": "spender",
          "type": "address"
        },
        {
          "indexed": false,
          "internalType": "uint256",
          "name": "value",
          "type": "uint256"
        }
      ],
      "name": "Approval",
      "type": "event"
    },
    {
      "anonymous": false,
      "inputs": [
        {
          "indexed": false,
          "internalType": "address",
          "name": "creator",
          "type": "address"
        },
        {
          "indexed": false,
          "internalType": "uint256",
          "name": "postId",
          "type": "uint256"
        },
        {
          "indexed": false,
          "internalType": "uint256",
          "name": "timestamp",
          "type": "uint256"
        },
        {
          "indexed": false,
          "internalType": "uint256",
          "name": "likes",
          "type": "uint256"
        },
        {
          "indexed": false,
          "internalType": "string",
          "name": "message",
          "type": "string"
        },
        {
          "indexed": false,
          "internalType": "string",
          "name": "pictureHash",
          "type": "string"
        }
      ],
      "name": "PostCreated",
      "type": "event"
    },
    {
      "anonymous": false,
      "inputs": [
        {
          "indexed": true,
          "internalType": "address",
          "name": "from",
          "type": "address"
        },
        {
          "indexed": true,
          "internalType": "address",
          "name": "to",
          "type": "address"
        },
        {
          "indexed": false,
          "internalType": "uint256",
          "name": "value",
          "type": "uint256"
        }
      ],
      "name": "Transfer",
      "type": "event"
    },
    {
      "inputs": [],
      "name": "admin",
      "outputs": [
        {
          "internalType": "address",
          "name": "",
          "type": "address"
        }
      ],
      "stateMutability": "view",
      "type": "function",
      "constant": true
    },
    {
      "inputs": [
        {
          "internalType": "address",
          "name": "owner",
          "type": "address"
        },
        {
          "internalType": "address",
          "name": "spender",
          "type": "address"
        }
      ],
      "name": "allowance",
      "outputs": [
        {
          "internalType": "uint256",
          "name": "",
          "type": "uint256"
        }
      ],
      "stateMutability": "view",
      "type": "function",
      "constant": true
    },
    {
      "inputs": [
        {
          "internalType": "address",
          "name": "spender",
          "type": "address"
        },
        {
          "internalType": "uint256",
          "name": "amount",
          "type": "uint256"
        }
      ],
      "name": "approve",
      "outputs": [
        {
          "internalType": "bool",
          "name": "",
          "type": "bool"
        }
      ],
      "stateMutability": "nonpayable",
      "type": "function"
    },
    {
      "inputs": [
        {
          "internalType": "address",
          "name": "account",
          "type": "address"
        }
      ],
      "name": "balanceOf",
      "outputs": [
        {
          "internalType": "uint256",
          "name": "",
          "type": "uint256"
        }
      ],
      "stateMutability": "view",
      "type": "function",
      "constant": true
    },
    {
      "inputs": [],
      "name": "decimals",
      "outputs": [
        {
          "internalType": "uint8",
          "name": "",
          "type": "uint8"
        }
      ],
      "stateMutability": "view",
      "type": "function",
      "constant": true
    },
    {
      "inputs": [
        {
          "internalType": "address",
          "name": "spender",
          "type": "address"
        },
        {
          "internalType": "uint256",
          "name": "subtractedValue",
          "type": "uint256"
        }
      ],
      "name": "decreaseAllowance",
      "outputs": [
        {
          "internalType": "bool",
          "name": "",
          "type": "bool"
        }
      ],
      "stateMutability": "nonpayable",
      "type": "function"
    },
    {
      "inputs": [
        {
          "internalType": "address",
          "name": "spender",
          "type": "address"
        },
        {
          "internalType": "uint256",
          "name": "addedValue",
          "type": "uint256"
        }
      ],
      "name": "increaseAllowance",
      "outputs": [
        {
          "internalType": "bool",
          "name": "",
          "type": "bool"
        }
      ],
      "stateMutability": "nonpayable",
      "type": "function"
    },
    {
      "inputs": [],
      "name": "name",
      "outputs": [
        {
          "internalType": "string",
          "name": "",
          "type": "string"
        }
      ],
      "stateMutability": "view",
      "type": "function",
      "constant": true
    },
    {
      "inputs": [],
      "name": "nextId",
      "outputs": [
        {
          "internalType": "uint256",
          "name": "",
          "type": "uint256"
        }
      ],
      "stateMutability": "view",
      "type": "function",
      "constant": true
    },
    {
      "inputs": [
        {
          "internalType": "uint256",
          "name": "",
          "type": "uint256"
        }
      ],
      "name": "posts",
      "outputs": [
        {
          "internalType": "address",
          "name": "creator",
          "type": "address"
        },
        {
          "internalType": "uint256",
          "name": "postId",
          "type": "uint256"
        },
        {
          "internalType": "uint256",
          "name": "timestamp",
          "type": "uint256"
        },
        {
          "internalType": "uint256",
          "name": "likes",
          "type": "uint256"
        },
        {
          "internalType": "string",
          "name": "message",
          "type": "string"
        },
        {
          "internalType": "string",
          "name": "pictureHash",
          "type": "string"
        }
      ],
      "stateMutability": "view",
      "type": "function",
      "constant": true
    },
    {
      "inputs": [],
      "name": "symbol",
      "outputs": [
        {
          "internalType": "string",
          "name": "",
          "type": "string"
        }
      ],
      "stateMutability": "view",
      "type": "function",
      "constant": true
    },
    {
      "inputs": [],
      "name": "totalSupply",
      "outputs": [
        {
          "internalType": "uint256",
          "name": "",
          "type": "uint256"
        }
      ],
      "stateMutability": "view",
      "type": "function",
      "constant": true
    },
    {
      "inputs": [
        {
          "internalType": "address",
          "name": "recipient",
          "type": "address"
        },
        {
          "internalType": "uint256",
          "name": "amount",
          "type": "uint256"
        }
      ],
      "name": "transfer",
      "outputs": [
        {
          "internalType": "bool",
          "name": "",
          "type": "bool"
        }
      ],
      "stateMutability": "nonpayable",
      "type": "function"
    },
    {
      "inputs": [
        {
          "internalType": "address",
          "name": "sender",
          "type": "address"
        },
        {
          "internalType": "address",
          "name": "recipient",
          "type": "address"
        },
        {
          "internalType": "uint256",
          "name": "amount",
          "type": "uint256"
        }
      ],
      "name": "transferFrom",
      "outputs": [
        {
          "internalType": "bool",
          "name": "",
          "type": "bool"
        }
      ],
      "stateMutability": "nonpayable",
      "type": "function"
    },
    {
      "inputs": [
        {
          "internalType": "string",
          "name": "_message",
          "type": "string"
        },
        {
          "internalType": "string",
          "name": "_pictureHash",
          "type": "string"
        }
      ],
      "name": "createNewPost",
      "outputs": [],
      "stateMutability": "nonpayable",
      "type": "function"
    }
  ],
  "bytecode": "0x60806040523480156200001157600080fd5b506040518060400160405280600a81526020017f496e73746120436f696e000000000000000000000000000000000000000000008152506040518060400160405280600481526020017f494e535400000000000000000000000000000000000000000000000000000000815250816003908051906020019062000096929190620000b8565b508060049080519060200190620000af929190620000b8565b505050620001cd565b828054620000c69062000168565b90600052602060002090601f016020900481019282620000ea576000855562000136565b82601f106200010557805160ff191683800117855562000136565b8280016001018555821562000136579182015b828111156200013557825182559160200191906001019062000118565b5b50905062000145919062000149565b5090565b5b80821115620001645760008160009055506001016200014a565b5090565b600060028204905060018216806200018157607f821691505b602082108114156200019857620001976200019e565b5b50919050565b7f4e487b7100000000000000000000000000000000000000000000000000000000600052602260045260246000fd5b611ac080620001dd6000396000f3fe608060405234801561001057600080fd5b50600436106100f55760003560e01c806361b8ce8c11610097578063a9059cbb11610066578063a9059cbb146102b5578063b4d9e5b5146102e5578063dd62ed3e14610301578063f851a44014610331576100f5565b806361b8ce8c1461021957806370a082311461023757806395d89b4114610267578063a457c2d714610285576100f5565b806318160ddd116100d357806318160ddd1461017d57806323b872dd1461019b578063313ce567146101cb57806339509351146101e9576100f5565b806306fdde03146100fa578063095ea7b3146101185780630b1e7f8314610148575b600080fd5b61010261034f565b60405161010f919061168f565b60405180910390f35b610132600480360381019061012d919061115c565b6103e1565b60405161013f9190611674565b60405180910390f35b610162600480360381019061015d9190611204565b6103ff565b60405161017496959493929190611605565b60405180910390f35b61018561056b565b6040516101929190611791565b60405180910390f35b6101b560048036038101906101b0919061110d565b610575565b6040516101c29190611674565b60405180910390f35b6101d361066d565b6040516101e091906117ac565b60405180910390f35b61020360048036038101906101fe919061115c565b610676565b6040516102109190611674565b60405180910390f35b610221610722565b60405161022e9190611791565b60405180910390f35b610251600480360381019061024c91906110a8565b610728565b60405161025e9190611791565b60405180910390f35b61026f610770565b60405161027c919061168f565b60405180910390f35b61029f600480360381019061029a919061115c565b610802565b6040516102ac9190611674565b60405180910390f35b6102cf60048036038101906102ca919061115c565b6108ed565b6040516102dc9190611674565b60405180910390f35b6102ff60048036038101906102fa9190611198565b61090b565b005b61031b600480360381019061031691906110d1565b610a68565b6040516103289190611791565b60405180910390f35b610339610aef565b604051610346919061157b565b60405180910390f35b60606003805461035e90611943565b80601f016020809104026020016040519081016040528092919081815260200182805461038a90611943565b80156103d75780601f106103ac576101008083540402835291602001916103d7565b820191906000526020600020905b8154815290600101906020018083116103ba57829003601f168201915b5050505050905090565b60006103f56103ee610b15565b8484610b1d565b6001905092915050565b60076020528060005260406000206000915090508060000160009054906101000a900473ffffffffffffffffffffffffffffffffffffffff169080600101549080600201549080600301549080600401805461045a90611943565b80601f016020809104026020016040519081016040528092919081815260200182805461048690611943565b80156104d35780601f106104a8576101008083540402835291602001916104d3565b820191906000526020600020905b8154815290600101906020018083116104b657829003601f168201915b5050505050908060050180546104e890611943565b80601f016020809104026020016040519081016040528092919081815260200182805461051490611943565b80156105615780601f1061053657610100808354040283529160200191610561565b820191906000526020600020905b81548152906001019060200180831161054457829003601f168201915b5050505050905086565b6000600254905090565b6000610582848484610ce8565b6000600160008673ffffffffffffffffffffffffffffffffffffffff1673ffffffffffffffffffffffffffffffffffffffff16815260200190815260200160002060006105cd610b15565b73ffffffffffffffffffffffffffffffffffffffff1673ffffffffffffffffffffffffffffffffffffffff1681526020019081526020016000205490508281101561064d576040517f08c379a000000000000000000000000000000000000000000000000000000000815260040161064490611711565b60405180910390fd5b61066185610659610b15565b858403610b1d565b60019150509392505050565b60006012905090565b6000610718610683610b15565b848460016000610691610b15565b73ffffffffffffffffffffffffffffffffffffffff1673ffffffffffffffffffffffffffffffffffffffff16815260200190815260200160002060008873ffffffffffffffffffffffffffffffffffffffff1673ffffffffffffffffffffffffffffffffffffffff168152602001908152602001600020546107139190611844565b610b1d565b6001905092915050565b60065481565b60008060008373ffffffffffffffffffffffffffffffffffffffff1673ffffffffffffffffffffffffffffffffffffffff168152602001908152602001600020549050919050565b60606004805461077f90611943565b80601f01602080910402602001604051908101604052809291908181526020018280546107ab90611943565b80156107f85780601f106107cd576101008083540402835291602001916107f8565b820191906000526020600020905b8154815290600101906020018083116107db57829003601f168201915b5050505050905090565b60008060016000610811610b15565b73ffffffffffffffffffffffffffffffffffffffff1673ffffffffffffffffffffffffffffffffffffffff16815260200190815260200160002060008573ffffffffffffffffffffffffffffffffffffffff1673ffffffffffffffffffffffffffffffffffffffff168152602001908152602001600020549050828110156108ce576040517f08c379a00000000000000000000000000000000000000000000000000000000081526004016108c590611771565b60405180910390fd5b6108e26108d9610b15565b85858403610b1d565b600191505092915050565b60006109016108fa610b15565b8484610ce8565b6001905092915050565b6040518060c001604052803373ffffffffffffffffffffffffffffffffffffffff1681526020016006548152602001428152602001600081526020018381526020018281525060076000600654815260200190815260200160002060008201518160000160006101000a81548173ffffffffffffffffffffffffffffffffffffffff021916908373ffffffffffffffffffffffffffffffffffffffff16021790555060208201518160010155604082015181600201556060820151816003015560808201518160040190805190602001906109e7929190610f73565b5060a0820151816005019080519060200190610a04929190610f73565b509050507f190d25e3242571c4d9260bb24b0c2932459745105c07af59685d1cc6fb70e85b336006544260008686604051610a4496959493929190611596565b60405180910390a160066000815480929190610a5f90611975565b91905055505050565b6000600160008473ffffffffffffffffffffffffffffffffffffffff1673ffffffffffffffffffffffffffffffffffffffff16815260200190815260200160002060008373ffffffffffffffffffffffffffffffffffffffff1673ffffffffffffffffffffffffffffffffffffffff16815260200190815260200160002054905092915050565b600560009054906101000a900473ffffffffffffffffffffffffffffffffffffffff1681565b600033905090565b600073ffffffffffffffffffffffffffffffffffffffff168373ffffffffffffffffffffffffffffffffffffffff161415610b8d576040517f08c379a0000000000000000000000000000000000000000000000000000000008152600401610b8490611751565b60405180910390fd5b600073ffffffffffffffffffffffffffffffffffffffff168273ffffffffffffffffffffffffffffffffffffffff161415610bfd576040517f08c379a0000000000000000000000000000000000000000000000000000000008152600401610bf4906116d1565b60405180910390fd5b80600160008573ffffffffffffffffffffffffffffffffffffffff1673ffffffffffffffffffffffffffffffffffffffff16815260200190815260200160002060008473ffffffffffffffffffffffffffffffffffffffff1673ffffffffffffffffffffffffffffffffffffffff168152602001908152602001600020819055508173ffffffffffffffffffffffffffffffffffffffff168373ffffffffffffffffffffffffffffffffffffffff167f8c5be1e5ebec7d5bd14f71427d1e84f3dd0314c0f7b2291e5b200ac8c7c3b92583604051610cdb9190611791565b60405180910390a3505050565b600073ffffffffffffffffffffffffffffffffffffffff168373ffffffffffffffffffffffffffffffffffffffff161415610d58576040517f08c379a0000000000000000000000000000000000000000000000000000000008152600401610d4f90611731565b60405180910390fd5b600073ffffffffffffffffffffffffffffffffffffffff168273ffffffffffffffffffffffffffffffffffffffff161415610dc8576040517f08c379a0000000000000000000000000000000000000000000000000000000008152600401610dbf906116b1565b60405180910390fd5b610dd3838383610f69565b60008060008573ffffffffffffffffffffffffffffffffffffffff1673ffffffffffffffffffffffffffffffffffffffff16815260200190815260200160002054905081811015610e59576040517f08c379a0000000000000000000000000000000000000000000000000000000008152600401610e50906116f1565b60405180910390fd5b8181036000808673ffffffffffffffffffffffffffffffffffffffff1673ffffffffffffffffffffffffffffffffffffffff16815260200190815260200160002081905550816000808573ffffffffffffffffffffffffffffffffffffffff1673ffffffffffffffffffffffffffffffffffffffff1681526020019081526020016000206000828254610eec9190611844565b925050819055508273ffffffffffffffffffffffffffffffffffffffff168473ffffffffffffffffffffffffffffffffffffffff167fddf252ad1be2c89b69c2b068fc378daa952ba7f163c4a11628f55a4df523b3ef84604051610f509190611791565b60405180910390a3610f63848484610f6e565b50505050565b505050565b505050565b828054610f7f90611943565b90600052602060002090601f016020900481019282610fa15760008555610fe8565b82601f10610fba57805160ff1916838001178555610fe8565b82800160010185558215610fe8579182015b82811115610fe7578251825591602001919060010190610fcc565b5b509050610ff59190610ff9565b5090565b5b80821115611012576000816000905550600101610ffa565b5090565b6000611029611024846117f8565b6117c7565b90508281526020810184848401111561104157600080fd5b61104c848285611901565b509392505050565b60008135905061106381611a5c565b92915050565b600082601f83011261107a57600080fd5b813561108a848260208601611016565b91505092915050565b6000813590506110a281611a73565b92915050565b6000602082840312156110ba57600080fd5b60006110c884828501611054565b91505092915050565b600080604083850312156110e457600080fd5b60006110f285828601611054565b925050602061110385828601611054565b9150509250929050565b60008060006060848603121561112257600080fd5b600061113086828701611054565b935050602061114186828701611054565b925050604061115286828701611093565b9150509250925092565b6000806040838503121561116f57600080fd5b600061117d85828601611054565b925050602061118e85828601611093565b9150509250929050565b600080604083850312156111ab57600080fd5b600083013567ffffffffffffffff8111156111c557600080fd5b6111d185828601611069565b925050602083013567ffffffffffffffff8111156111ee57600080fd5b6111fa85828601611069565b9150509250929050565b60006020828403121561121657600080fd5b600061122484828501611093565b91505092915050565b6112368161189a565b82525050565b611245816118ac565b82525050565b611254816118ef565b82525050565b600061126582611828565b61126f8185611833565b935061127f818560208601611910565b61128881611a4b565b840191505092915050565b60006112a0602383611833565b91507f45524332303a207472616e7366657220746f20746865207a65726f206164647260008301527f65737300000000000000000000000000000000000000000000000000000000006020830152604082019050919050565b6000611306602283611833565b91507f45524332303a20617070726f766520746f20746865207a65726f20616464726560008301527f73730000000000000000000000000000000000000000000000000000000000006020830152604082019050919050565b600061136c602683611833565b91507f45524332303a207472616e7366657220616d6f756e742065786365656473206260008301527f616c616e636500000000000000000000000000000000000000000000000000006020830152604082019050919050565b60006113d2602883611833565b91507f45524332303a207472616e7366657220616d6f756e742065786365656473206160008301527f6c6c6f77616e63650000000000000000000000000000000000000000000000006020830152604082019050919050565b6000611438602583611833565b91507f45524332303a207472616e736665722066726f6d20746865207a65726f20616460008301527f64726573730000000000000000000000000000000000000000000000000000006020830152604082019050919050565b600061149e602483611833565b91507f45524332303a20617070726f76652066726f6d20746865207a65726f2061646460008301527f72657373000000000000000000000000000000000000000000000000000000006020830152604082019050919050565b6000611504602583611833565b91507f45524332303a2064656372656173656420616c6c6f77616e63652062656c6f7760008301527f207a65726f0000000000000000000000000000000000000000000000000000006020830152604082019050919050565b611566816118d8565b82525050565b611575816118e2565b82525050565b6000602082019050611590600083018461122d565b92915050565b600060c0820190506115ab600083018961122d565b6115b8602083018861155d565b6115c5604083018761155d565b6115d2606083018661124b565b81810360808301526115e4818561125a565b905081810360a08301526115f8818461125a565b9050979650505050505050565b600060c08201905061161a600083018961122d565b611627602083018861155d565b611634604083018761155d565b611641606083018661155d565b8181036080830152611653818561125a565b905081810360a0830152611667818461125a565b9050979650505050505050565b6000602082019050611689600083018461123c565b92915050565b600060208201905081810360008301526116a9818461125a565b905092915050565b600060208201905081810360008301526116ca81611293565b9050919050565b600060208201905081810360008301526116ea816112f9565b9050919050565b6000602082019050818103600083015261170a8161135f565b9050919050565b6000602082019050818103600083015261172a816113c5565b9050919050565b6000602082019050818103600083015261174a8161142b565b9050919050565b6000602082019050818103600083015261176a81611491565b9050919050565b6000602082019050818103600083015261178a816114f7565b9050919050565b60006020820190506117a6600083018461155d565b92915050565b60006020820190506117c1600083018461156c565b92915050565b6000604051905081810181811067ffffffffffffffff821117156117ee576117ed611a1c565b5b8060405250919050565b600067ffffffffffffffff82111561181357611812611a1c565b5b601f19601f8301169050602081019050919050565b600081519050919050565b600082825260208201905092915050565b600061184f826118d8565b915061185a836118d8565b9250827fffffffffffffffffffffffffffffffffffffffffffffffffffffffffffffffff0382111561188f5761188e6119be565b5b828201905092915050565b60006118a5826118b8565b9050919050565b60008115159050919050565b600073ffffffffffffffffffffffffffffffffffffffff82169050919050565b6000819050919050565b600060ff82169050919050565b60006118fa826118d8565b9050919050565b82818337600083830152505050565b60005b8381101561192e578082015181840152602081019050611913565b8381111561193d576000848401525b50505050565b6000600282049050600182168061195b57607f821691505b6020821081141561196f5761196e6119ed565b5b50919050565b6000611980826118d8565b91507fffffffffffffffffffffffffffffffffffffffffffffffffffffffffffffffff8214156119b3576119b26119be565b5b600182019050919050565b7f4e487b7100000000000000000000000000000000000000000000000000000000600052601160045260246000fd5b7f4e487b7100000000000000000000000000000000000000000000000000000000600052602260045260246000fd5b7f4e487b7100000000000000000000000000000000000000000000000000000000600052604160045260246000fd5b6000601f19601f8301169050919050565b611a658161189a565b8114611a7057600080fd5b50565b611a7c816118d8565b8114611a8757600080fd5b5056fea26469706673582212205768b9002f2c6b0909f506b60f80e63d8398e544063513d6ed1d4799d6182b2064736f6c63430008000033",
  "immutableReferences": {},
  "source": "// SPDX-License-Identifier: MIT\npragma solidity >=0.4.22 <0.9.0;\n\nimport \"@openzeppelin/contracts/token/ERC20/ERC20.sol\";\n\ncontract Instagram is ERC20 {\n    address public admin;\n    uint256 public nextId;\n\n    event PostCreated(\n        address creator,\n        uint256 postId,\n        uint256 timestamp,\n        uint256 likes,\n        string message,\n        string pictureHash\n    );\n\n    struct postStruct {\n        address creator;\n        uint256 postId;\n        uint256 timestamp;\n        uint256 likes;\n        string message;\n        string pictureHash;\n    }\n\n    mapping(uint256 => postStruct) public posts;\n\n    constructor() ERC20(\"Insta Coin\", \"INST\") {}\n\n    function createNewPost(string memory _message, string memory _pictureHash)\n        external\n    {\n        posts[nextId] = postStruct(\n            msg.sender,\n            nextId,\n            block.timestamp,\n            0,\n            _message,\n            _pictureHash\n        );\n\n        emit PostCreated(\n            msg.sender,\n            nextId,\n            block.timestamp,\n            0,\n            _message,\n            _pictureHash\n        );\n\n        nextId++;\n    }\n}\n",
  "sourcePath": "/Volumes/APPLE HDD/reactprojects/instagram/contracts/Instagram.sol",
  "compiler": {
    "name": "solc",
    "version": "0.8.0+commit.c7dfd78e.Emscripten.clang"
  },
  "schemaVersion": "3.4.3",
  "updatedAt": "2021-10-22T17:01:41.575Z",
  "networkType": "ethereum",
  "devdoc": {
    "kind": "dev",
    "methods": {
      "allowance(address,address)": {
        "details": "See {IERC20-allowance}."
      },
      "approve(address,uint256)": {
        "details": "See {IERC20-approve}. Requirements: - `spender` cannot be the zero address."
      },
      "balanceOf(address)": {
        "details": "See {IERC20-balanceOf}."
      },
      "decimals()": {
        "details": "Returns the number of decimals used to get its user representation. For example, if `decimals` equals `2`, a balance of `505` tokens should be displayed to a user as `5.05` (`505 / 10 ** 2`). Tokens usually opt for a value of 18, imitating the relationship between Ether and Wei. This is the value {ERC20} uses, unless this function is overridden; NOTE: This information is only used for _display_ purposes: it in no way affects any of the arithmetic of the contract, including {IERC20-balanceOf} and {IERC20-transfer}."
      },
      "decreaseAllowance(address,uint256)": {
        "details": "Atomically decreases the allowance granted to `spender` by the caller. This is an alternative to {approve} that can be used as a mitigation for problems described in {IERC20-approve}. Emits an {Approval} event indicating the updated allowance. Requirements: - `spender` cannot be the zero address. - `spender` must have allowance for the caller of at least `subtractedValue`."
      },
      "increaseAllowance(address,uint256)": {
        "details": "Atomically increases the allowance granted to `spender` by the caller. This is an alternative to {approve} that can be used as a mitigation for problems described in {IERC20-approve}. Emits an {Approval} event indicating the updated allowance. Requirements: - `spender` cannot be the zero address."
      },
      "name()": {
        "details": "Returns the name of the token."
      },
      "symbol()": {
        "details": "Returns the symbol of the token, usually a shorter version of the name."
      },
      "totalSupply()": {
        "details": "See {IERC20-totalSupply}."
      },
      "transfer(address,uint256)": {
        "details": "See {IERC20-transfer}. Requirements: - `recipient` cannot be the zero address. - the caller must have a balance of at least `amount`."
      },
      "transferFrom(address,address,uint256)": {
        "details": "See {IERC20-transferFrom}. Emits an {Approval} event indicating the updated allowance. This is not required by the EIP. See the note at the beginning of {ERC20}. Requirements: - `sender` and `recipient` cannot be the zero address. - `sender` must have a balance of at least `amount`. - the caller must have allowance for ``sender``'s tokens of at least `amount`."
      }
    },
    "version": 1
  },
  "userdoc": {
    "kind": "user",
    "methods": {},
    "version": 1
  }
}